{
  "_format": "hh-sol-artifact-1",
  "contractName": "DepaToken",
  "sourceName": "contracts/DepaToken.sol",
  "abi": [
    {
      "inputs": [
        {
          "internalType": "uint256",
          "name": "_initialSupply",
          "type": "uint256"
        }
      ],
      "stateMutability": "nonpayable",
      "type": "constructor"
    },
    {
      "anonymous": false,
      "inputs": [
        {
          "indexed": true,
          "internalType": "address",
          "name": "_owner",
          "type": "address"
        },
        {
          "indexed": true,
          "internalType": "address",
          "name": "_spender",
          "type": "address"
        },
        {
          "indexed": false,
          "internalType": "uint256",
          "name": "_value",
          "type": "uint256"
        }
      ],
      "name": "Approval",
      "type": "event"
    },
    {
      "anonymous": false,
      "inputs": [
        {
          "indexed": true,
          "internalType": "address",
          "name": "_from",
          "type": "address"
        },
        {
          "indexed": true,
          "internalType": "address",
          "name": "_to",
          "type": "address"
        },
        {
          "indexed": false,
          "internalType": "uint256",
          "name": "_value",
          "type": "uint256"
        }
      ],
      "name": "Transfer",
      "type": "event"
    },
    {
      "inputs": [],
      "name": "_userId",
      "outputs": [
        {
          "internalType": "uint256",
          "name": "",
          "type": "uint256"
        }
      ],
      "stateMutability": "view",
      "type": "function"
    },
    {
      "inputs": [
        {
          "internalType": "address",
          "name": "",
          "type": "address"
        },
        {
          "internalType": "address",
          "name": "",
          "type": "address"
        }
      ],
      "name": "allowance",
      "outputs": [
        {
          "internalType": "uint256",
          "name": "",
          "type": "uint256"
        }
      ],
      "stateMutability": "view",
      "type": "function"
    },
    {
      "inputs": [
        {
          "internalType": "address",
          "name": "_spender",
          "type": "address"
        },
        {
          "internalType": "uint256",
          "name": "_value",
          "type": "uint256"
        }
      ],
      "name": "approve",
      "outputs": [
        {
          "internalType": "bool",
          "name": "success",
          "type": "bool"
        }
      ],
      "stateMutability": "nonpayable",
      "type": "function"
    },
    {
      "inputs": [],
      "name": "getTokenHolder",
      "outputs": [
        {
          "internalType": "address[]",
          "name": "",
          "type": "address[]"
        }
      ],
      "stateMutability": "view",
      "type": "function"
    },
    {
      "inputs": [
        {
          "internalType": "address",
          "name": "_address",
          "type": "address"
        }
      ],
      "name": "getTokenHolderData",
      "outputs": [
        {
          "internalType": "uint256",
          "name": "",
          "type": "uint256"
        },
        {
          "internalType": "address",
          "name": "",
          "type": "address"
        },
        {
          "internalType": "address",
          "name": "",
          "type": "address"
        },
        {
          "internalType": "uint256",
          "name": "",
          "type": "uint256"
        },
        {
          "internalType": "bool",
          "name": "",
          "type": "bool"
        }
      ],
      "stateMutability": "view",
      "type": "function"
    },
    {
      "inputs": [],
      "name": "name",
      "outputs": [
        {
          "internalType": "string",
          "name": "",
          "type": "string"
        }
      ],
      "stateMutability": "view",
      "type": "function"
    },
    {
      "inputs": [],
      "name": "ownerOfContract",
      "outputs": [
        {
          "internalType": "address",
          "name": "",
          "type": "address"
        }
      ],
      "stateMutability": "view",
      "type": "function"
    },
    {
      "inputs": [],
      "name": "standard",
      "outputs": [
        {
          "internalType": "string",
          "name": "",
          "type": "string"
        }
      ],
      "stateMutability": "view",
      "type": "function"
    },
    {
      "inputs": [],
      "name": "symbol",
      "outputs": [
        {
          "internalType": "string",
          "name": "",
          "type": "string"
        }
      ],
      "stateMutability": "view",
      "type": "function"
    },
    {
      "inputs": [
        {
          "internalType": "address",
          "name": "",
          "type": "address"
        }
      ],
      "name": "tokenBalance",
      "outputs": [
        {
          "internalType": "uint256",
          "name": "",
          "type": "uint256"
        }
      ],
      "stateMutability": "view",
      "type": "function"
    },
    {
      "inputs": [
        {
          "internalType": "uint256",
          "name": "",
          "type": "uint256"
        }
      ],
      "name": "tokenHolder2",
      "outputs": [
        {
          "internalType": "address",
          "name": "",
          "type": "address"
        }
      ],
      "stateMutability": "view",
      "type": "function"
    },
    {
      "inputs": [
        {
          "internalType": "address",
          "name": "",
          "type": "address"
        }
      ],
      "name": "tokenHolderInfos",
      "outputs": [
        {
          "internalType": "uint256",
          "name": "_tokenId",
          "type": "uint256"
        },
        {
          "internalType": "address",
          "name": "_from",
          "type": "address"
        },
        {
          "internalType": "address",
          "name": "_to",
          "type": "address"
        },
        {
          "internalType": "uint256",
          "name": "_totalToken",
          "type": "uint256"
        },
        {
          "internalType": "bool",
          "name": "_tokenHolder",
          "type": "bool"
        }
      ],
      "stateMutability": "view",
      "type": "function"
    },
    {
      "inputs": [],
      "name": "totalSupply",
      "outputs": [
        {
          "internalType": "uint256",
          "name": "",
          "type": "uint256"
        }
      ],
      "stateMutability": "view",
      "type": "function"
    },
    {
      "inputs": [
        {
          "internalType": "address",
          "name": "_to",
          "type": "address"
        },
        {
          "internalType": "uint256",
          "name": "_value",
          "type": "uint256"
        }
      ],
      "name": "transfer",
      "outputs": [
        {
          "internalType": "bool",
          "name": "success",
          "type": "bool"
        }
      ],
      "stateMutability": "nonpayable",
      "type": "function"
    },
    {
      "inputs": [
        {
          "internalType": "address",
          "name": "_from",
          "type": "address"
        },
        {
          "internalType": "address",
          "name": "_to",
          "type": "address"
        },
        {
          "internalType": "uint256",
          "name": "_value",
          "type": "uint256"
        }
      ],
      "name": "transferFrom",
      "outputs": [
        {
          "internalType": "bool",
          "name": "success",
          "type": "bool"
        }
      ],
      "stateMutability": "nonpayable",
      "type": "function"
    }
  ],
  "bytecode": "0x60806040526040518060400160405280600981526020017f44657061546f6b656e0000000000000000000000000000000000000000000000815250600090816200004a919062000419565b506040518060400160405280600381526020017f44455000000000000000000000000000000000000000000000000000000000008152506001908162000091919062000419565b506040518060400160405280600c81526020017f446570546b6e20762e302e31000000000000000000000000000000000000000081525060029081620000d8919062000419565b50348015620000e657600080fd5b50604051620019223803806200192283398181016040528101906200010c919062000536565b33600560006101000a81548173ffffffffffffffffffffffffffffffffffffffff021916908373ffffffffffffffffffffffffffffffffffffffff16021790555080600960003373ffffffffffffffffffffffffffffffffffffffff1673ffffffffffffffffffffffffffffffffffffffff16815260200190815260200160002081905550806003819055505062000568565b600081519050919050565b7f4e487b7100000000000000000000000000000000000000000000000000000000600052604160045260246000fd5b7f4e487b7100000000000000000000000000000000000000000000000000000000600052602260045260246000fd5b600060028204905060018216806200022157607f821691505b602082108103620002375762000236620001d9565b5b50919050565b60008190508160005260206000209050919050565b60006020601f8301049050919050565b600082821b905092915050565b600060088302620002a17fffffffffffffffffffffffffffffffffffffffffffffffffffffffffffffffff8262000262565b620002ad868362000262565b95508019841693508086168417925050509392505050565b6000819050919050565b6000819050919050565b6000620002fa620002f4620002ee84620002c5565b620002cf565b620002c5565b9050919050565b6000819050919050565b6200031683620002d9565b6200032e620003258262000301565b8484546200026f565b825550505050565b600090565b6200034562000336565b620003528184846200030b565b505050565b5b818110156200037a576200036e6000826200033b565b60018101905062000358565b5050565b601f821115620003c95762000393816200023d565b6200039e8462000252565b81016020851015620003ae578190505b620003c6620003bd8562000252565b83018262000357565b50505b505050565b600082821c905092915050565b6000620003ee60001984600802620003ce565b1980831691505092915050565b6000620004098383620003db565b9150826002028217905092915050565b62000424826200019f565b67ffffffffffffffff81111562000440576200043f620001aa565b5b6200044c825462000208565b620004598282856200037e565b600060209050601f8311600181146200049157600084156200047c578287015190505b620004888582620003fb565b865550620004f8565b601f198416620004a1866200023d565b60005b82811015620004cb57848901518255600182019150602085019450602081019050620004a4565b86831015620004eb5784890151620004e7601f891682620003db565b8355505b6001600288020188555050505b505050505050565b600080fd5b6200051081620002c5565b81146200051c57600080fd5b50565b600081519050620005308162000505565b92915050565b6000602082840312156200054f576200054e62000500565b5b60006200055f848285016200051f565b91505092915050565b6113aa80620005786000396000f3fe608060405234801561001057600080fd5b50600436106100f55760003560e01c806382b6826311610097578063ba8e355711610066578063ba8e3557146102b8578063bc4530e7146102d6578063dd62ed3e146102f4578063eedc966a14610324576100f5565b806382b682631461020657806395d89b411461023a578063a871505d14610258578063a9059cbb14610288576100f5565b806323b872dd116100d357806323b872dd1461016657806329cc66ed14610196578063468229ae146101ca5780635a3b7e42146101e8576100f5565b806306fdde03146100fa578063095ea7b31461011857806318160ddd14610148575b600080fd5b610102610354565b60405161010f9190610e90565b60405180910390f35b610132600480360381019061012d9190610f4b565b6103e2565b60405161013f9190610fa6565b60405180910390f35b6101506104d4565b60405161015d9190610fd0565b60405180910390f35b610180600480360381019061017b9190610feb565b6104da565b60405161018d9190610fa6565b60405180910390f35b6101b060048036038101906101ab919061103e565b61068b565b6040516101c195949392919061107a565b60405180910390f35b6101d261070e565b6040516101df91906110cd565b60405180910390f35b6101f0610734565b6040516101fd9190610e90565b60405180910390f35b610220600480360381019061021b919061103e565b6107c2565b60405161023195949392919061107a565b60405180910390f35b610242610979565b60405161024f9190610e90565b60405180910390f35b610272600480360381019061026d91906110e8565b610a07565b60405161027f91906110cd565b60405180910390f35b6102a2600480360381019061029d9190610f4b565b610a46565b6040516102af9190610fa6565b60405180910390f35b6102c0610d15565b6040516102cd91906111d3565b60405180910390f35b6102de610da3565b6040516102eb9190610fd0565b60405180910390f35b61030e600480360381019061030991906111f5565b610da9565b60405161031b9190610fd0565b60405180910390f35b61033e6004803603810190610339919061103e565b610dce565b60405161034b9190610fd0565b60405180910390f35b6000805461036190611264565b80601f016020809104026020016040519081016040528092919081815260200182805461038d90611264565b80156103da5780601f106103af576101008083540402835291602001916103da565b820191906000526020600020905b8154815290600101906020018083116103bd57829003601f168201915b505050505081565b600081600860003373ffffffffffffffffffffffffffffffffffffffff1673ffffffffffffffffffffffffffffffffffffffff16815260200190815260200160002060008573ffffffffffffffffffffffffffffffffffffffff1673ffffffffffffffffffffffffffffffffffffffff168152602001908152602001600020819055508273ffffffffffffffffffffffffffffffffffffffff163373ffffffffffffffffffffffffffffffffffffffff167f8c5be1e5ebec7d5bd14f71427d1e84f3dd0314c0f7b2291e5b200ac8c7c3b925846040516104c29190610fd0565b60405180910390a36001905092915050565b60035481565b600081600960008673ffffffffffffffffffffffffffffffffffffffff1673ffffffffffffffffffffffffffffffffffffffff168152602001908152602001600020600082825461052b91906112c4565b9250508190555081600960008573ffffffffffffffffffffffffffffffffffffffff1673ffffffffffffffffffffffffffffffffffffffff168152602001908152602001600020600082825461058191906112f8565b9250508190555081600860008673ffffffffffffffffffffffffffffffffffffffff1673ffffffffffffffffffffffffffffffffffffffff16815260200190815260200160002060003373ffffffffffffffffffffffffffffffffffffffff1673ffffffffffffffffffffffffffffffffffffffff168152602001908152602001600020600082825461061491906112c4565b925050819055508273ffffffffffffffffffffffffffffffffffffffff168473ffffffffffffffffffffffffffffffffffffffff167fddf252ad1be2c89b69c2b068fc378daa952ba7f163c4a11628f55a4df523b3ef846040516106789190610fd0565b60405180910390a3600190509392505050565b60076020528060005260406000206000915090508060000154908060010160009054906101000a900473ffffffffffffffffffffffffffffffffffffffff16908060020160009054906101000a900473ffffffffffffffffffffffffffffffffffffffff16908060030154908060040160009054906101000a900460ff16905085565b600560009054906101000a900473ffffffffffffffffffffffffffffffffffffffff1681565b6002805461074190611264565b80601f016020809104026020016040519081016040528092919081815260200182805461076d90611264565b80156107ba5780601f1061078f576101008083540402835291602001916107ba565b820191906000526020600020905b81548152906001019060200180831161079d57829003601f168201915b505050505081565b6000806000806000600760008773ffffffffffffffffffffffffffffffffffffffff1673ffffffffffffffffffffffffffffffffffffffff16815260200190815260200160002060000154600760008873ffffffffffffffffffffffffffffffffffffffff1673ffffffffffffffffffffffffffffffffffffffff16815260200190815260200160002060020160009054906101000a900473ffffffffffffffffffffffffffffffffffffffff16600760008973ffffffffffffffffffffffffffffffffffffffff1673ffffffffffffffffffffffffffffffffffffffff16815260200190815260200160002060010160009054906101000a900473ffffffffffffffffffffffffffffffffffffffff16600760008a73ffffffffffffffffffffffffffffffffffffffff1673ffffffffffffffffffffffffffffffffffffffff16815260200190815260200160002060030154600760008b73ffffffffffffffffffffffffffffffffffffffff1673ffffffffffffffffffffffffffffffffffffffff16815260200190815260200160002060040160009054906101000a900460ff169450945094509450945091939590929450565b6001805461098690611264565b80601f01602080910402602001604051908101604052809291908181526020018280546109b290611264565b80156109ff5780601f106109d4576101008083540402835291602001916109ff565b820191906000526020600020905b8154815290600101906020018083116109e257829003601f168201915b505050505081565b60068181548110610a1757600080fd5b906000526020600020016000915054906101000a900473ffffffffffffffffffffffffffffffffffffffff1681565b600081600960003373ffffffffffffffffffffffffffffffffffffffff1673ffffffffffffffffffffffffffffffffffffffff168152602001908152602001600020541015610a9457600080fd5b610a9c610de6565b81600960003373ffffffffffffffffffffffffffffffffffffffff1673ffffffffffffffffffffffffffffffffffffffff1681526020019081526020016000206000828254610aeb91906112c4565b9250508190555081600960008573ffffffffffffffffffffffffffffffffffffffff1673ffffffffffffffffffffffffffffffffffffffff1681526020019081526020016000206000828254610b4191906112f8565b925050819055506000600760008573ffffffffffffffffffffffffffffffffffffffff1673ffffffffffffffffffffffffffffffffffffffff1681526020019081526020016000209050838160020160006101000a81548173ffffffffffffffffffffffffffffffffffffffff021916908373ffffffffffffffffffffffffffffffffffffffff160217905550338160010160006101000a81548173ffffffffffffffffffffffffffffffffffffffff021916908373ffffffffffffffffffffffffffffffffffffffff16021790555082816003018190555060018160040160006101000a81548160ff02191690831515021790555060045481600001819055506006849080600181540180825580915050600190039060005260206000200160009091909190916101000a81548173ffffffffffffffffffffffffffffffffffffffff021916908373ffffffffffffffffffffffffffffffffffffffff1602179055508373ffffffffffffffffffffffffffffffffffffffff163373ffffffffffffffffffffffffffffffffffffffff167fddf252ad1be2c89b69c2b068fc378daa952ba7f163c4a11628f55a4df523b3ef85604051610d029190610fd0565b60405180910390a3600191505092915050565b60606006805480602002602001604051908101604052809291908181526020018280548015610d9957602002820191906000526020600020905b8160009054906101000a900473ffffffffffffffffffffffffffffffffffffffff1673ffffffffffffffffffffffffffffffffffffffff1681526020019060010190808311610d4f575b5050505050905090565b60045481565b6008602052816000526040600020602052806000526040600020600091509150505481565b60096020528060005260406000206000915090505481565b60046000815480929190610df99061132c565b9190505550565b600081519050919050565b600082825260208201905092915050565b60005b83811015610e3a578082015181840152602081019050610e1f565b60008484015250505050565b6000601f19601f8301169050919050565b6000610e6282610e00565b610e6c8185610e0b565b9350610e7c818560208601610e1c565b610e8581610e46565b840191505092915050565b60006020820190508181036000830152610eaa8184610e57565b905092915050565b600080fd5b600073ffffffffffffffffffffffffffffffffffffffff82169050919050565b6000610ee282610eb7565b9050919050565b610ef281610ed7565b8114610efd57600080fd5b50565b600081359050610f0f81610ee9565b92915050565b6000819050919050565b610f2881610f15565b8114610f3357600080fd5b50565b600081359050610f4581610f1f565b92915050565b60008060408385031215610f6257610f61610eb2565b5b6000610f7085828601610f00565b9250506020610f8185828601610f36565b9150509250929050565b60008115159050919050565b610fa081610f8b565b82525050565b6000602082019050610fbb6000830184610f97565b92915050565b610fca81610f15565b82525050565b6000602082019050610fe56000830184610fc1565b92915050565b60008060006060848603121561100457611003610eb2565b5b600061101286828701610f00565b935050602061102386828701610f00565b925050604061103486828701610f36565b9150509250925092565b60006020828403121561105457611053610eb2565b5b600061106284828501610f00565b91505092915050565b61107481610ed7565b82525050565b600060a08201905061108f6000830188610fc1565b61109c602083018761106b565b6110a9604083018661106b565b6110b66060830185610fc1565b6110c36080830184610f97565b9695505050505050565b60006020820190506110e2600083018461106b565b92915050565b6000602082840312156110fe576110fd610eb2565b5b600061110c84828501610f36565b91505092915050565b600081519050919050565b600082825260208201905092915050565b6000819050602082019050919050565b61114a81610ed7565b82525050565b600061115c8383611141565b60208301905092915050565b6000602082019050919050565b600061118082611115565b61118a8185611120565b935061119583611131565b8060005b838110156111c65781516111ad8882611150565b97506111b883611168565b925050600181019050611199565b5085935050505092915050565b600060208201905081810360008301526111ed8184611175565b905092915050565b6000806040838503121561120c5761120b610eb2565b5b600061121a85828601610f00565b925050602061122b85828601610f00565b9150509250929050565b7f4e487b7100000000000000000000000000000000000000000000000000000000600052602260045260246000fd5b6000600282049050600182168061127c57607f821691505b60208210810361128f5761128e611235565b5b50919050565b7f4e487b7100000000000000000000000000000000000000000000000000000000600052601160045260246000fd5b60006112cf82610f15565b91506112da83610f15565b92508282039050818111156112f2576112f1611295565b5b92915050565b600061130382610f15565b915061130e83610f15565b925082820190508082111561132657611325611295565b5b92915050565b600061133782610f15565b91507fffffffffffffffffffffffffffffffffffffffffffffffffffffffffffffffff820361136957611368611295565b5b60018201905091905056fea264697066735822122086ba5138c5de767b5b1cced848a3e337163090c6170fa5e71a693aea80917b0564736f6c63430008130033",
  "linkReferences": {},
  "deployedLinkReferences": {}
}